S01A00004156522053686966742052656769737465722E737265639E
S11300000EC026C025C024C023C0FBC021C020C010
S113001060C01EC01DC01CC01BC01AC019C0112462
S11300201FBECFEDCDBF10E0A0E6B0E0E0EAF2E005
S113003002C005900D92A637B107D9F720E0A6E7D4
S1130040B0E001C01D92AA37B207E1F724D026C15F
S1130050D7CF87B3866187BB0895C29AC2980895A3
S1130060CF93DF93D82FC498C8E0DD2314F4C19A4A
S113007001C0C198F2DFDD0FC150B9F7C49ADF9116
S1130080CF91089586B18D6886B987B1836087B9A9
S11300900895369A08957894DCDFF4DFFADFB89A8D
S11300A08AB583688ABD89B7826089BF8DE789BDB7
S11300B083B7816083BF87EA91E60197F1F700C0B7
S11300C00000809174008B5F8093740080917400B1
S11300D0F2CF1F920F920FB60F9211240F931F931A
S11300E02F933F934F935F936F937F938F939F933C
S11300F0AF93BF93EF93FF9384B195B1909377003F
S1130100809376008091760090917700A0E0B0E033
S1130110880F991FAA1FBB1F880F991FAA1FBB1FF7
S1130120880F991FAA1FBB1F880F991FAA1FBB1FE7
S1130130AC01BD01440F551F661F771F440F551FA7
S1130140661F771F840F951FA61FB71FAC01BD0143
S1130150440F551F661F771F440F551F661F771FD7
S1130160840F951FA61FB71FAC01BD01440F551F77
S1130170661F771F440F551F661F771F840F951F37
S1130180A61FB71FAC01BD01440F551F661F771F83
S1130190440F551F661F771F8C019D01040F151F07
S11301A0261F371FC901B8012FEF33E040E050E0AC
S11301B037D0CA01B9016C507E4F8F4F9F4F28EE44
S11301C033E040E050E02CD020937900E0917900B6
S11301D0F0E0E05AFF4F808143DF369AFF91EF91C0
S11301E0BF91AF919F918F917F916F915F914F914B
S11301F03F912F911F910F910F900FBE0F901F9061
S113020018951F920F920FB60F9211248F9380911D
S1130210740089BD8F910F900FBE0F901F90189599
S1130220052E97FB16F400940FD057FD05D014D07B
S113023007FC02D046F408C05095409530952195AE
S11302403F4F4F4F5F4F08959095809570956195FE
S11302507F4F8F4F9F4F0895A1E21A2EAA1BBB1BFD
S1130260FD010DC0AA1FBB1FEE1FFF1FA217B3077E
S1130270E407F50720F0A21BB30BE40BF50B661F94
S1130280771F881F991F1A9469F760957095809558
S113029090959B01AC01BD01CF010895F894FFCF67
S11302A0C0F9A4B0999282F8809040792430191250
S10902B0027800107F003B
S9030000FC
