:100000000EC026C025C024C023C04CC121C020C0C2
:100010006DC01EC01DC01CC01BC01AC019C0112459
:100020001FBECFEDCDBF10E0A0E6B0E0E0E9F3E009
:1000300002C005900D92A637B107D9F720E0A6E7D8
:10004000B0E001C01D92AA37B207E1F724D09EC1EB
:10005000D7CF87B3866187BB0895C29AC2980895A7
:10006000CF93DF93D82FC498C8E0DD2314F4C19A4E
:1000700001C0C198F2DFDD0FC150B9F7C49ADF911A
:10008000CF91089586B18D6886B987B1836087B9AD
:100090000895369A08957894DCDFF4DFFADFB89A91
:1000A0008AB583688ABD89B7826089BF8DE789BDBB
:1000B00083B7816083BF3CE82FEB9FEF809179008D
:1000C000883018F090937400F9CF809179008630D1
:1000D00018F020937400F2CF80917900843018F0EA
:1000E00030937400EBCF10927400E8CF1F920F9200
:1000F0000FB60F9211242F933F934F935F936F93FB
:100100007F938F939F93AF93BF93EF93FF9384B1AC
:1001100095B19093770080937600809176009091CE
:1001200077008E9718F010927900A3C06091760046
:100130007091770080E090E0C8D02AE939E949E978
:1001400050E4BFD0882324F482E18093790091C0E9
:10015000609176007091770080E090E0B6D02AE957
:1001600039E949E151E4ADD0882324F489E0809352
:1001700079007FC0609176007091770080E090E018
:10018000A4D026E636E646E651E49BD0882324F444
:1001900088E0809379006DC060917600709177005F
:1001A00080E090E092D02AE939E949E951E489D028
:1001B000882324F487E0809379005BC080917600E7
:1001C00090917700489720F486E08093790051C0A1
:1001D000609176007091770080E090E076D026E61E
:1001E00036E646EE51E46DD0882324F485E0809312
:1001F00079003FC0609176007091770080E090E0D8
:1002000064D026E636E646E052E45BD0882324F448
:1002100084E0809379002DC0609176007091770022
:1002200080E090E052D02AE939E949E152E449D02E
:10023000882324F483E0809379001BC060917600CA
:100240007091770080E090E040D02DEC3CEC4CE2E7
:1002500052E437D0882324F482E08093790009C0E7
:1002600080917600909177008E9718F481E08093CA
:100270007900E0917900F0E0E05AFF4F8081F0DEF4
:10028000369AFF91EF91BF91AF919F918F917F919E
:100290006F915F914F913F912F910F900FBE0F90F3
:1002A0001F9018951F920F920FB60F9211248F93E3
:1002B0008091740089BD8F910F900FBE0F901F9099
:1002C000189540D008F481E00895E89409C097FBA0
:1002D0003EF490958095709561957F4F8F4F9F4F1D
:1002E0009923A9F0F92F96E9BB279395F695879561
:1002F00077956795B795F111F8CFFAF4BB0F11F424
:1003000060FF1BC06F5F7F4F8F4F9F4F16C08823CA
:1003100011F096E911C0772321F09EE8872F762F00
:1003200005C0662371F096E8862F70E060E02AF041
:100330009A95660F771F881FDAF7880F969587952D
:1003400097F90895990F0008550FAA0BE0E8FEEF02
:1003500016161706E807F907C0F012161306E40789
:10036000F50798F0621B730B840B950B39F40A2682
:1003700061F0232B242B252B21F408950A2609F460
:10038000A140A6958FEF811D811D0895F894FFCFA0
:10039000C0F9A4B0999282F8809040792430191263
:0603A000027800107F004E
:00000001FF
